:020000040800F2
:10000000280700208102000809210008AD1D000812
:1000100005210008B50C000885220008000000003A
:100020000000000000000000000000001121000896
:10003000B90C0008000000000D210008152100087F
:100040009B0200089B0200089B0200089B0200081C
:100050009B0200089B0200089B0200089B0200080C
:100060009B0200089B0200089B0200089B020008FC
:100070009B0200089B0200089B0200089B020008EC
:100080009B0200089B0200089B0200089B020008DC
:100090009B0200089B0200089B0200089B020008CC
:1000A0009B0200089B0200089B0200089B020008BC
:1000B0009B0200089B0200089B0200089B020008AC
:1000C0009B0200089B0200089B0200089B0200089C
:1000D0009B0200089B0200089B0200089B0200088C
:1000E0009B0200089B0200089B0200089B0200087C
:1000F0009B0200089B0200089B0200089B0200086C
:100100009B02000800000000000000009B020008A5
:100110009B0200089B0200089B0200089B0200084B
:100120009B0200089B0200089B0200089B0200083B
:100130009B0200089B020008000000000000000075
:100140009B0200089B0200089B02000800000000C0
:10015000000000000000000000000000000000009F
:100160009B0200089B0200089B0200089B020008FB
:100170009B0200089B0200089B0200089B020008EB
:100180009B0200089B020008000000000000000025
:100190009B02000800F002F800F062F814A696E84E
:1001A000000CB244B344DA4501D100F059F8BAE882
:1001B0000F000FA696E83000A5EB040504EB060738
:1001C000AAEB0704A7F101074FEA15154FEA34140B
:1001D000A4F10104AC4201D300F042F813F0010F86
:1001E00018BFFB1A43F0010300F001F8DBE71847E2
:1001F000943F0000B43F0000103A24BF78C878C193
:10020000FAD8520724BF30C830C144BF04680C601C
:1002100070470000704700000023002400250026DE
:10022000103A28BF78C1FBD8520728BF30C148BF59
:100230000B607047662903F02687642900F054801C
:10024000002070471FB503F00CFF00F0BFFB040057
:100250000020002103F048FAE0601FBD10B510BD7A
:1002600000F0B4FC1146FFF7EDFF02F021F900F0B9
:10027000D2FC03B4FFF7F2FF03BC00F013FD000053
:100280000948804709480047FEE7FEE7FEE7FEE72A
:10029000FEE7FEE7FEE7FEE7FEE7FEE70448054966
:1002A000054A064B70470000192100089501000817
:1002B0002801002028070020280300202803002010
:1002C0000FB41CB5074B06AA7B44694600900598FD
:1002D00000F063FB0020694600F072FB1CBC5DF877
:1002E00014FB0000F50600002DE9F041064600244D
:1002F00010687529314616A510D0AFF3008000288C
:1003000002DA404213A507E031688A0701D512A539
:1003100002E0490704D511A5012401E0AFF30080F4
:1003200000210A2206F1240709E0B0FBF2FCB0FB31
:10033000F2F302FB1C00303078541846491C0028A8
:10034000F3D123462A463046BDE8F04100F0B9B863
:10035000000000002D0000002B0000002000000025
:100360002DE9F0474FF0000A89460446C0F820A066
:100370002046E1688847002876D0252806D0D4E9B1
:1003800001219047206A401C2062F1E7E168204685
:1003900000258847C4F81CA006460027C4F818A00A
:1003A0002A2E09D0304603F097F938B304EB8708BA
:1003B000303EC8F8186019E059F8041B204604EBD9
:1003C00087029161E1688847012F064618D1E069EC
:1003D000002820DA25F020051DE0D8F8180000EBF1
:1003E000800006EB40003038C8F818002046E1686D
:1003F0008847064603F070F90028EED1012F0AD095
:100400002E2E08D12046E16888477F1C0646022F21
:1004100045F02005C4DBA069002803DA404245F01E
:100420000105A061E80701D025F01005B6B1A6F1DD
:100430004100192802D8203645F400654A46314665
:10044000204625604D46FFF7F5FE58B1012806D03D
:10045000ED1D25F0070000F1080989E704E005F12A
:10046000040985E730468AE7206ABDE8F0874FF047
:10047000000200B5134694469646203922BFA0E8F4
:100480000C50A0E80C50B1F12001BFF4F7AF090700
:1004900028BFA0E80C5048BF0CC05DF804EB8900F1
:1004A00028BF40F8042B08BF704748BF20F8022B34
:1004B00011F0804F18BF00F8012B7047704770474C
:1004C00070472DE9F0470D4699469246044600F1E3
:1004D00024080168880604D5E06921F01001216034
:1004E00000E00120A84201DD471B00E00027A169D0
:1004F0007A1902EB0900081AA0612078C00602D41C
:100500002046AFF30080002608E0D4E901211AF864
:1005100006009047206A401C761C20624E45F4DBA2
:100520002078C0060AD52046AFF3008006E0D4E963
:10053000012130209047206A401C2062381EA7F11C
:100540000107F4DC07E0D4E9012118F80500904721
:10055000206A401C2062281EA5F10105F3DC20461C
:10056000AFF300802078000602D50220BDE8F087B6
:100570000120FBE72DE9FF4F0C461E464FF0FF37E9
:100580008BB0D2E90001DDF860800A908A46C1F3A1
:100590000A5505B93D46002108464FF00000BAF162
:1005A000000F00F4400005DA00EB80004FF440013A
:1005B00001EA50004FEA9059B9F1010F00DDB94648
:1005C0000A9850EA4A000ED044F61050A5F2FF35C2
:1005D00045432F14B8F1000F1ED07542291E1EDDB1
:1005E000C9F100021CE0B8F1010F4FF0000001D08A
:1005F000302103E0F24305E02154401CB042FBDB14
:1006000030460022002121540B99C1F80880C1E92D
:1006100000200FB0BDE8F08FBD1B6D1CDEE74A4621
:1006200000DA694206A800F05BFA06AB93E807001F
:1006300003AB83E8070050460A9902F06DFC8DE891
:100640000700A0F500501F3800900398002D0ADD28
:1006500042F21F014A460844002303A9039068465A
:1006600002F0D6FE09E0A0F500504A461F380023EC
:1006700003A90390684602F0E0FE8DE8070000043D
:10068000000C03D04FF0FF30410800E01046B8F1F5
:10069000000F03D00022009215461EE0751E05D4FF
:1006A00000F098F9303262556D1EF9D5B34601223B
:1006B000084302D000227F1C04E02078302801D1BA
:1006C00000227F1E002A099784D01DE0112D07DA31
:1006D00000F080F9303262556D1C50EA0102F5D10C
:1006E000084302D00098C8B10EE00021681E05E062
:1006F000235C625C63542254401E491C8142F7DB38
:10070000AB46A81B401E0990002004F80B000B9874
:10071000099AC0F80880C0E9002B7AE711264FF04B
:10072000000857E72DE9F04F88460446D21D22F015
:10073000070191B0D1E90001CDE90A0102F0B4FF4F
:1007400002460B98C00F01D02D2007E020688107DA
:1007500001D52B2002E0202101EAC000032A0990E4
:1007600001D0072A05DB03464146204600F078F910
:100770000BE12078800601D5E06900E00620B8F1A1
:10078000650F814606D0B8F1660F18D0B8F1670F33
:1007900070D131E00020B9F1110F009001DB11237D
:1007A00001E009F101030AAA01A90CA8FFF7E2FE82
:1007B000DDE90C70002609F10105834647E00120C0
:1007C0004B4600904FF000470AAA01A90CA8FFF77A
:1007D000D1FEDDE90DB00C995D46002610B909F196
:1007E00001000D18B9EB050003D4C0F1FF3609F183
:1007F0000105A5EB09002BE0B9F1010F01DA4FF07B
:1008000001090020B9F1110F0090484601DD1123C4
:1008100000E003460AAA01A90CA8FFF7ABFEDDE938
:100820000C704D4600268346207800070AD4AB455D
:1008300000DA5D4601A8012D04DD411911F8011C03
:10084000302907D04F4502DA17F1040F04DA0120EE
:1008500082460FE06D1EEEE7002F02DCED1B3E44EA
:1008600003E0781CA84200DD7D1CB81B00F1010AE2
:100870004FF000472078000703D4AA4501DB4FF072
:10088000FF3A0021B7F1004F0DF143088DF84310F6
:1008900024D002202B23002F01DA7F422D230A21AE
:1008A000021EA0F1010000DC5FB197FBF1FC97FB99
:1008B000F1F201FB1C7C17460CF1300C08F801CD5D
:1008C000EEE7A8F1010003702188090501D5452153
:1008D00000E06521A0F1010800F8011C09980FA9AA
:1008E000A1EB0807FF1D00B10120411901EBEA70DF
:1008F000A1693844081A401EA0612078C00602D4BD
:100900002046AFF30080099828B1D4E9012190472F
:10091000206A401C20622078C00622D52046AFF312
:1009200000801EE0002E04DBB34502DD01A8805DDF
:1009300000E03020D4E901219047206A401C206269
:10094000761CAAF101005FEA000A0AD100F03EF825
:10095000C0680168405CD4E901219047206A401CCE
:100960002062281EA5F10105DCDC07E0D4E90121A5
:1009700018F8010B9047206A401C2062381EA7F12E
:100980000107F3DC2046AFF30080032011B041E6FD
:1009900001694A1C02610878704700B58FB0CDE943
:1009A00001310021059105497944CDE90310114633
:1009B0006846FFF7D5FC0FB000BD0000E5FFFFFF64
:1009C0000A6802F8010B0A6070470000004870478F
:1009D0003000002030B5B0F10A0271F100034FEA97
:1009E000900E4EEA817EB0EB0E0061EB91014FEA72
:1009F000101E4EEA017E10EB0E0041EB11114FEA82
:100A0000102E4EEA016E10EB0E0041EB11214FEA61
:100A1000104E4EEA014E10EB0E0041EB1141401812
:100A200041F100014FEAD00040EA41704FEAD101A4
:100A30004FEA810444EA907410EB800544EB010412
:100A40006D1944EB0404521BA3414FF0000348BF4F
:100A50000A3200D530BD401C41F1000130BD00001C
:100A60002DE9F0411F46044603260168072A01F4D8
:100A7000006004DB08B116A505E016A503E008B187
:100A800015A500E015A521F010002060A069C01E8A
:100A9000A0610FB1401EA0612046AFF300804FB1AE
:100AA000D4E9012138469047206A401C2062C01CCE
:100AB000206206E0206AFAE7D4E9012115F8010B6B
:100AC0009047761EF8D22046AFF30080BDE8F08153
:100AD0004E414E006E616E00494E4600696E6600E2
:100AE0002DE9F047814616468AB0354878440DC84E
:100AF0008DE80D0032487844801C03AC0DC884E8B2
:100B00000D0041F69B300844372190FBF1F290FB39
:100B1000F1F5A5F1800501FB12041B3C02D56442EE
:100B2000012000E00020DFF898A080460027FA446A
:100B3000AAF1BE0A0EE0E0070AD03246684607EB8B
:100B4000470101230AEB810102F077FC8DE80700E1
:100B500064107F1C002CEED1194F7F44AE3F19E08A
:100B6000E80715D007EB04100DF1180A90E80E0005
:100B70008AE80E00C068F04201D198190890324608
:100B8000012306A903A802F058FC03AB83E8070081
:100B90006D10641C002DE3D14FF00103324669460D
:100BA000B8F1000F03A802D002F032FC01E002F01D
:100BB00044FCC9E90001C9F808200AB0BDE8F08783
:100BC0001836000000487047100000207546FFF7F7
:100BD000F9FFAE4605006946534620F007008546FA
:100BE00018B020B5FFF75AFBBDE820404FF00006D3
:100BF0004FF000074FF000084FF0000BAC46ACE898
:100C0000C009ACE8C009ACE8C009ACE8C00921F0F3
:100C100007018D46704710B50446AFF300802046AB
:100C2000BDE81040FFF725BB30B44FF0013C50F851
:100C3000042B51F8043BCCFA52F4D51A20D1FCB95C
:100C400050F8042B51F8043BCCFA52F4D51A17D1C2
:100C5000B4B950F8042B51F8043BCCFA52F4D51A2D
:100C60000ED16CB950F8042B51F8043BCCFA52F475
:100C7000D51A05D1002CDAD030BC4FF000007047F7
:100C800029BAB1FA81F111F01801D1F120008440A4
:100C9000F2D1CA40CB4012F0FF0213F0FF0330BC88
:100CA000D01A704701491820ABBEFEE726000200AB
:100CB00070470000FEE7000070470000B0B5044632
:100CC00000F0F6F8054640F20000C2F2000000789D
:100CD000611C18BF044400BF00F0EAF8401BA042AA
:100CE000FAD3B0BD2DE9F04F83B00E68002E00F0AE
:100CF000CF8000F1200241F6000C009200F138474D
:100D0000C4F6000C07224FEAB725604508BF06224B
:100D1000062D38BF4FEAB722002500274FF0000804
:100D200001920AE00E6808F1010836FA08F207F1AC
:100D3000020705F1040500F0AB80012202FA08FE6B
:100D400016EA0E09EED0D1F804C003220CF0030B12
:100D5000ABF1010602FA07F4012E6FEA040A11D87A
:100D60008468CE6804EA0A04BE4034438460446860
:100D700024EA0E06CCF3001404FA08F42643466075
:100D800006E000BFBBF1030F02D14FF0030B21E0DF
:100D9000C6688C6806EA0A06BC402643BBF1020F0F
:100DA000C66017D16FF00302009B02EA580605F0F7
:100DB0001C020F2453F806C004FA02FE0C692CEA48
:100DC0000E0C04FA02F242EA0C029A51D1F804C065
:100DD0000CF0030B02680BFA07F302EA0A021A434B
:100DE0001CF4403F02609DD041F21803C4F202039C
:100DF0001A6840F2004E42F001021A601A68C4F20A
:100E0000010E02F001020292029A28F003024FF64C
:100E1000084C7244CFF6FF7C52F80C3005F00C06FB
:100E20000F24B440A343019C04FA06F6334342F86E
:100E30000C30DEF808204B6842EA090640F20C4C00
:100E4000DC0258BF22EA0906CEF80860C4F2010CA1
:100E5000DCF800209C0242EA090658BF22EA090693
:100E6000CCF80060DEF804209C0342EA090658BF73
:100E700022EA0906CEF80460DEF80020DB0342EA2D
:100E8000090658BF22EA0906CEF800604AE700BF0B
:100E900003B0BDE8F08F00000069084018BF0120D2
:100EA000704700001823002A08BF2823C15070474C
:100EB00040F22410C2F200000068704790F8412010
:100EC000202A03D190F84020012A01D10220704746
:100ED000242280F841200268136823F00103136084
:100EE000136823F480531360136819431160116869
:100EF00041F001011160202180F84110002180F8AB
:100F0000401000207047000090F84120202A03D1B3
:100F100090F84020012A01D102207047242280F855
:100F200041200268136823F001031360136823F45F
:100F3000706343EA01211160116841F00101116001
:100F4000202180F84110002180F8401000207047D7
:100F5000002804BF0120704710B590F8411031B946
:100F6000002180F84010044600F036F92046242184
:100F700080F8411090E81210C3680A68012B22F033
:100F800001020A6024F070620A618A6822F4004259
:100F90008A6003D14CF400428A6009E04CF40442B8
:100FA000022B8A6004D14A6842F4006203E000BF69
:100FB0004A6822F400624A604A6800F1100C42F06C
:100FC000007242F400424A60CA6822F40042CA60D9
:100FD0009CE81C101A4342EA0422CA60026A42EAF0
:100FE0000C020A600A6842F001020A600021202215
:100FF000416480F84120016380F84210002010BD58
:101000002DE9F04F81B0044690F84100202803D12B
:1010100094F84000012803D1022001B0BDE8F08F10
:1010200001200D469846174684F84000FFF740FF20
:10103000216806468A6912041BD4212084F84100E5
:10104000102084F84200002060646762A4F82A80BF
:101050006063608D49F6000CB0F5807FCFF6004CE0
:1010600022D3FF2222854FF0807324E08869000498
:10107000E3D520461921324600F09AFE002840F0C0
:101080008580FFF715FF801B21681A28EED3886939
:101090000004EBD5606C40F020006064202084F8F0
:1010A0004100012083E000BF628D002A228500F00C
:1010B00087804FF0007317F8010B88626762608DBC
:1010C00001386085501E208528466FF39F20D2B2DC
:1010D00040EA02404A68184302EA0C02104340F416
:1010E00000504860608D0A9F002849D06FF39F250B
:1010F00040F2000B05F100784FF0FF090CF5806A13
:10110000C0F2FF1B0DE000BF608D216820854A689A
:10111000C0B248EA004002EA0A0210434860608D0B
:1011200070B320463946324600F0A0FF70BB606ABB
:10113000216810F8012B8A626062608D0138608539
:10114000208D01382085618D0029E8D00004E6D18A
:101150002046802100223B46009600F0D7FEA8B929
:10116000608DB0F5807FCFD32068A4F828904168C7
:1011700001EA0A01294341EA0B014160CFE700BFC0
:1011800020463946324600F033FF18B1012001B045
:10119000BDE8F08F20682021C16142684EF600034F
:1011A000CFF600631A404260002084F8411000210D
:1011B00084F8421084F8401001B0BDE8F08F00BF01
:1011C000486808222B4600EA0C0062F39F2318436C
:1011D00040F0007085E7000010B586B0006845F269
:1011E0000042C4F2000200219042CDE90411CDE991
:1011F0000211019102D006B010BD00BF41F21404EB
:10120000C4F20204206840F480202060206800F4CA
:101210008020009000984FF4407001901220CDE99A
:101220000201032004900420059040F20040C4F61F
:10123000000001A9FFF756FDA06840F40010A0606F
:10124000A06800F400100090009806B010BD0000E7
:1012500040F2000040F22411C2F20000C2F200018C
:1012600000780A68104408607047000080B542F2B8
:101270000000C4F20200016841F010010160032087
:1012800000F072F80F2000F005F800F027F80020B9
:1012900080BD000070B540F20006C2F2000640F2C8
:1012A00008013278C2F200014FF47A730968B3FB87
:1012B000F2F20446B1FBF2F1084600F061FC0F2C9B
:1012C0004FF0010508D838B94FF0FF302146002211
:1012D000002500F01DF87460284670BD82B041F210
:1012E0001800C4F20200016841F0010101600168C8
:1012F00001F0010101910199416841F08051416083
:10130000406800F080500090009802B070470000E4
:1013100010B54EF60C5CCEF2000CDCF80030C3F3D6
:10132000022E8EF00704042C28BF0424BEF1030310
:101330004FF0FF3E0EFA04F438BF0023A14399405A
:101340000EFA03F39A43114300F00F0200F16043D9
:101350000901043A03F564436244002848BF02F1DE
:101360000C03197010BD00004EF60C51CEF20001B6
:101370000A684FF6FF031A4060F30A2242F08060C9
:1013800040F0FD70086070472DE9F04182B00446DE
:10139000807841F23006C007C4F2020656D056F8F3
:1013A000140C5FEAC0080BD456F8140C40F08050BF
:1013B00046F8140C56F8140C00F080500190019877
:1013C00047F20007C4F200073868C00512D4386835
:1013D00040F480703860FFF76BFD05463868C00543
:1013E00008D4FFF765FD401B6428F7D9032002B03D
:1013F000BDE8F08156F8100C10F4407015D061680B
:1014000001F44071884210D056F8100C40F240426E
:10141000C4F24222012320F4407113600023C0076C
:10142000136046F8101C40F0F98056F8100C616803
:1014300020F440700843B8F1000F46F8100C05D4B2
:1014400056F8140C20F0805046F8140C2068C107A0
:1014500038D181073ED4410744D481064AD4810360
:1014600050D4410658D441035ED4010764D4C10668
:101470006AD4810570D4010679D4C10500F1828057
:10148000C10400F18A80810400F19080C10200F162
:101490009680810200F19C80410200F1A28001024D
:1014A00000F1A880C10100F1AE80800105D530684F
:1014B000216D20F4004008433060002002B0BDE8F8
:1014C000F08100BF3168A26821F00301114331604F
:1014D0008107C0D53168E26821F4403111433160A1
:1014E0004107BAD53168226921F4402111433160A6
:1014F0008106B4D53168E26921F0100111433160F1
:101500008103AED556F82C1C626D21F48001114385
:1015100046F82C1C4106A6D53168226A21F020012C
:10152000114331604103A0D53168626A21F0400166
:101530001143316001079AD53168626921F4401185
:1015400011433160C10694D53168A26921F440018C
:101550001143316081058ED556F82C1C226B21F485
:101560000001114346F82C1C01067FF586AF56F8A2
:10157000041CA26A21F4F871114346F8041CC10549
:101580007FF57EAF56F8041CE26A21F478511143CE
:1015900046F8041CC1047FF576AF3168626B21F414
:1015A00080711143316081047FF570AF3168226C26
:1015B00021F4007111433160C1027FF56AAF3168D7
:1015C000A26B21F080711143316081027FF564AF1D
:1015D0003168E26B21F000711143316041027FF507
:1015E0005EAF3168626C21F48061114331600102A9
:1015F0007FF558AF3168A26C21F40061114331606E
:10160000C1017FF552AF3168E26C21F40051114302
:10161000316080013FF54BAF4FE700BFFFF748FC5B
:10162000054641F2883700BF56F8100C80073FF599
:10163000FCAEFFF73DFC401BB8424FF00300F3D96E
:101640003CE70000002804BF012070472DE9F0436B
:1016500081B042F20008C4F202080446D8F8000043
:101660000D4600F0070081420CD9D8F8000020F0A8
:1016700007002843C8F80000D8F8000000F0070071
:10168000A8427AD1206841F204098107C4F2020914
:1016900007D5D9F80010A26821F0F0011143C9F86C
:1016A0000010C00760D1D8F8000000F007008542A4
:1016B0000CD2D8F8000020F007002843C8F800003A
:1016C000D8F8000000F00700A84256D12068410772
:1016D00007D5D9F80010E26821F4E0611143C9F898
:1016E0000010000708D5D9F80000216920F46050E7
:1016F00040EAC100C9F80000D9F8001001F00C0060
:10170000082841F20020C0F27A0012D144F23012CF
:10171000C1F38341C0F60002515CD9F8282044F29D
:10172000401302F00F02C0F600039A5CB0FBF2F027
:101730004843D9F8001044F22012C1F30311C0F657
:101740000002515C40F2080220FA01F140F204006C
:10175000C2F200000068C2F200021160FFF79AFDB9
:10176000002001B0BDE8F083606859F8041C02282D
:1017700008D0012826D1890306D4012001B0BDE894
:10178000F08300BF8901F8D5D9F8001021F00301DA
:101790000843C9F80000FFF78BFB064641F2883783
:1017A000D9F80000616800F00C00B0EB810F3FF445
:1017B0007AAFFFF77DFB801BB842F1D9032001B05F
:1017C000BDE8F0838907D8D5DEE70000002804BF14
:1017D000012070472DE9F04182B00446007841F2C3
:1017E0000006C007C4F202060CD0706800F00C00BE
:1017F000042840F083803068800303D560680028A7
:1018000000F02281207880071ED5706810F00C0F40
:101810000CD0706800F00C00082840F08B807068D5
:1018200000F4C030B0F5004F40F08480306880078D
:1018300003D5E068012840F007813068216920F075
:10184000F80040EAC10030602078000714D4207806
:1018500040072BD4A569002D00F0F180706800F0DE
:101860000C00082840F0A480012D40F0D780012012
:1018700002B0BDE8F08100BF6069002800F0808000
:101880000020C4F242200121C0F88014FFF710FBB1
:10189000054600BF706A8007D9D4FFF709FB401BDB
:1018A0000228F7D9032002B0BDE8F081F0695FEAB1
:1018B000C00808D4F06940F08050F061F06900F091
:1018C00080500190019847F20007C4F20007386881
:1018D000C00549D4386840F480703860FFF7E8FAF2
:1018E000054600BF3868C0053ED4FFF7E1FA401B4B
:1018F0006428F7D9032002B0BDE8F081706800F0D9
:101900000C00082806D1706800F4C030B0F5803FA4
:101910003FF471AF61683068002900F0E380B1F5F1
:10192000A02F00F0D780B1F5803F40F0F18040F467
:101930008030F3E0E068002840F20000C4F242206A
:101940005AD001210160FFF7B3FA054630688007DD
:101950003FF573AFFFF7ACFA401B0228F6D903201E
:1019600002B0BDE8F08100BFA168306A002977D0DD
:1019700005296DD0012940F08B8040F001008DE0F9
:101980000020C4F242200021C0F88014FFF790FA32
:10199000054600BF706A80077FF559AFFFF788FAE8
:1019A000401B0228F6D9032002B0BDE8F08100BF39
:1019B0000027C4F2422700203866FFF779FA022D8B
:1019C00005460DD13068800140F1BA80FFF770FA0A
:1019D000401B02284FF00300F4D902B0BDE8F081AB
:1019E000306880012BD5FFF763FA401B02284FF0C7
:1019F0000300F5D9F1E700BF00210160FFF758FAB5
:101A0000054600BF306880077FF51EAFFFF750FA2C
:101A1000401B02284FF00300F4D9DEE77168F06A3A
:101A2000E26901F4C03393420ED1226A01F47011CD
:101A3000914209D1616A00F00F00884204D1002070
:101A400002B0BDE8F08100BF012002B0BDE8F08126
:101A500040F004003062306A40F001001EE000BF38
:101A600020F001003062306A20F004003062FFF79D
:101A70001FFA054641F28837306A800720D5FFF704
:101A800017FA401BB8424FF00300F5D9A5E700BF95
:101A900020F001003062306A20F004003062FFF76D
:101AA00007FA054641F28837306A800708D4FFF705
:101AB000FFF9401BB842F7D9032002B0BDE8F0811E
:101AC000B8F1000F3FF5C6AEF06920F08050F0612C
:101AD000C0E600BF40F480203060306840F48030C1
:101AE0001CE000BF20F480303060306820F480209B
:101AF0003060FFF7DDF90546306880037FF582AE80
:101B0000FFF7D6F9401B64284FF00300F4D964E7CF
:101B100020F480303060306820F480203060FFF79F
:101B2000C7F90546306880033FF56CAEFFF7C0F992
:101B3000401B6428F6D9032002B0BDE8F08100BF45
:101B4000F06A626A20F00F001043D4E90713F062D4
:101B5000706820F4761018430843706001203866DE
:101B6000FFF7A6F9044600BF306880013FF567AF74
:101B7000FFF79EF9001B02284FF00300F4D92CE771
:101B8000411E0020B0EB116F1CBF012070474EF2C8
:101B90001002CEF2000251604EF62351CEF2000147
:101BA000F0230B70072190601160704790F83C2083
:101BB000012A4FF0020258D0B0B580F83D200268EB
:101BC00042F6004C54689368C4F2010C45F2000ED2
:101BD0006245C4F2010E18BF724529D14D6824F444
:101BE00070042C430D6824F070042C4342F6FF353A
:101BF000C4F20105AA4254600ADD43F6FF74C4F240
:101C00000104A2421CDC624522D043F200451BE0E5
:101C1000B2F1804F1CD040F20045C4F20005AA4248
:101C200016D040F60005C4F20005AA4210D014E018
:101C300043F20045C4F20105AA42CFD0D2E700BF6B
:101C4000724505D044F20005C4F20105AA4204D150
:101C5000896823F08003194391600121002280F8F4
:101C60003D1080F83C20BDE8B040104670470000B1
:101C7000002804BF0120704710B5044690F83D00CD
:101C800028B9002084F83C00204600F023F8022008
:101C900084F83D002068211D00F048FA012084F8F6
:101CA000480084F83E0084F83F0084F8400084F83F
:101CB000410084F8420084F8430084F8440084F82A
:101CC000450084F8460084F8470084F83D00002071
:101CD00010BD0000006841F20001C4F2000188421A
:101CE00018BF704781B041F21C00C4F202000168C5
:101CF00041F010010160006800F0100000900098B1
:101D000001B0704790F83D1001291DD1022180F8E3
:101D10003D10016842F6FF30C4F20100814215DD3A
:101D200043F6FF70C4F2010081421FDC42F600401E
:101D3000C4F20100814225D043F20040C4F2010008
:101D400081421FD02BE000BF01207047B1F1804FCE
:101D500018D040F20040C4F20000814212D040F698
:101D60000000C4F2000081420CD018E045F20000EF
:101D7000C4F20100814205D044F20000C4F2010027
:101D800081420CD188680722C0F201020240062A73
:101D90004FF00000D9D0B2F5803F08BF7047086807
:101DA00040F001000860002070470000FEE70000DE
:101DB00070B50446006815468369DA0602D400212E
:101DC000002266E00E461021C161816989065CD45B
:101DD000711C50D02EBBFFF76BF82068426894F856
:101DE000421083691B040BD512F4804208D12029CC
:101DF00006D0416841F480414160FFF759F805463B
:101E000020688169890605D4FFF752F8401B1A281B
:101E1000F6D328E081698906DDD536E08169890637
:101E200033D4FFF745F8411B2068B142F6D9426828
:101E300094F8421083691B040CD512F4804209D136
:101E4000202907D0416841F480414160FFF730F814
:101E5000054600BF206881698906DFD4FFF728F8AE
:101E6000401B1A28F6D3206801228169242110E042
:101E70008169890609D48169890606D48169890640
:101E80005CBF81695FEA8161F2D52021C1610122D5
:101E900004218369DE0505D54FF4807241F001010C
:101EA000C26101225E0505D49B050AD472B90020E7
:101EB00070BD00BF41F008014FF480629B05C26114
:101EC00004D541F002014FF40072C26182699207A9
:101ED00044BF002282628269D20703D1826942F044
:101EE0000102826142684EF60003CFF600631A4099
:101EF0004260606C08436064202084F84100002048
:101F000084F8420084F84000012070BD2DE9F041C2
:101F10000446006880690840401AB0FA80F0400921
:101F2000824221D1DDF8188015460E461F46581C06
:101F300027D0CFBB204600214246FFF739FF0028BB
:101F400053D1FEF7B5FF206881693140891BB1FA92
:101F500081F149098D423CD080693040801BB0FA44
:101F600080F040098542E5D00020BDE8F08100BF47
:101F7000206880693040801BB0FA80F040098542BB
:101F8000F2D120464FF0FF314246FFF711FF002803
:101F9000EED00120BDE8F08180693040801BB0FAAE
:101FA00080F040098542DFD1204639464246FFF79E
:101FB000FFFED0B9FEF77CFFA0EB08012068B94214
:101FC000EAD981693140891BB1FA81F149098D4211
:101FD000E2D1606C40F020006064202084F8410071
:101FE000002084F8420084F840000120BDE8F08120
:101FF00070B5044600688069800635D415460E46E3
:1020000019B928E0806980062ED4204631462A4638
:10201000FFF7CEFE30BBFEF74BFF411B2068B142FD
:10202000F0D981698906EDD4606C40F020006064CD
:10203000202084F84100002084F8420084F8400009
:10204000012070BDFEF734FF206881698906EBD559
:102050008069800608D4204600212A46FFF7A8FEA2
:102060000028EFD0012070BD002070BD70B504467F
:1020700000688069800714D415460E46481C17D0A6
:102080001EBB00BF204600212A46FFF791FEB8BBC9
:10209000FEF70EFF20688169890725D580698007D2
:1020A000F0D5002070BD00BF206880698007F8D49B
:1020B00020464FF0FF312A46FFF77AFE0028F3D082
:1020C000012070BD80698007EBD4204631462A4646
:1020D000FFF76EFEA0B9FEF7EBFE411B2068B14290
:1020E000F0D981698907EDD4606C40F0200060640C
:1020F000202084F84100002084F8420084F8400049
:10210000012070BDFEE70000FEE700007047000000
:1021100070470000FFF79CB84EF68850CEF20000E2
:10212000016841F4700101607047000042F6FF331E
:102130000268C4F2010398422EDCB0F1804F3DD01A
:1021400040F20043C4F20003984237D040F6000347
:10215000C4F20003984231D043F2FF33C4F20103CA
:10216000984235DD44F2FF33C4F2010398424DDD5D
:1021700044F20043C4F20103984253D045F20003F5
:10218000C4F2010398424DD044F60003C4F20103A7
:10219000984247D04AE000BF42F60043C4F2010330
:1021A00098420BD045F20003C4F20103984205D0D7
:1021B00043F20043C4F201039842CDD14B6822F0B0
:1021C00070021A4343F2FF33C4F201039842C9DCA0
:1021D00040F2FF73C4F20003984209DCB0F1804F73
:1021E00020D040F20043C4F2000398421AD01DE010
:1021F00040F60003C4F20003984213D042F60043B5
:10220000C4F2010398420DD010E000BF43F2004336
:10221000C4F20103984205D044F20003C4F2010362
:10222000984203D1CB6822F440721A4380B54B69BF
:1022300022F0800E8A6843EA0E03D1F800C00360E2
:10224000C262A0F18042A2F596324FEAB222092A78
:10225000C0F828C0BDE8804008D8012303FA02F284
:1022600040F2E5231A421CBF096901630121416163
:102270000169C90708BF7047016921F001010161C7
:1022800070470000FEE7000080B582B040F60C0009
:10229000C1F61C00019040F2D0004FF0640CC2F275
:1022A000000001AA4E210423CDF800C0FEF7A8FECD
:1022B0000220FEF703FD02B080BD000070B582B0C1
:1022C0003220FEF7FBFC40F2D00443F63C06C2F29B
:1022D0000004C0F60C06642501AA20464E21042302
:1022E00001960095FEF78CFE0520FEF7E7FC01AA9B
:1022F00020464E21042301960095FEF781FE012021
:10230000FEF7DCFC01AA20464E210423019600952D
:10231000FEF776FE0A20FEF7D1FC42F62C00C0F64E
:102320000C00019001AA20464E2104230095FEF7DF
:1023300067FE0A20FEF7C2FC42F62C00C8F68C00AD
:10234000019001AA20464E2104230095FEF758FE75
:102350000120FEF7B3FC40F60C00C8F68C0001909B
:1023600001AA20464E2104230095FEF749FE0120D4
:10237000FEF7A4FC40F60C00C1F61C00019001AA77
:1023800020464E2104230095FEF73AFE0220FEF778
:1023900095FC40F60C00C6F66C00019001AA2046A0
:1023A0004E2104230095FEF72BFE0120FEF786FC4C
:1023B00040F60C00CCF6CC00019001AA20464E213C
:1023C00004230095FEF71CFE02B070BD80B584B0FA
:1023D00001281BD0C8BB21F00F000901A0F1740235
:1023E00078388DF8090001F10C008DF80A0001F130
:1023F00008008DF80B0040F2D0008DF808204FF057
:10240000640CC2F2000002AA19E000BF21F00F0024
:102410000901A0F1340238388DF80D0001F10C00EB
:102420008DF80E0001F108008DF80F0040F2D00089
:102430008DF80C204FF0640CC2F2000003AA4E216C
:102440000423CDF800C0FEF7DBFD04B080BD000022
:102450000178002908BF7047F0B583B040F2D0047E
:10246000461E6427C2F2000402AD00BF21F00F0037
:10247000090100F10D0209308DF8090001F10D008C
:102480008DF80A0001F109008DF808208DF80B0085
:1024900020464E212A4604230097FEF7B1FDB1786D
:1024A00001360029E2D103B0BDE8F04070470000DA
:1024B000A6B0FEF7DBFE01A8002404305421CDE9CC
:1024C0002044CDE91E44FDF7D2FF03201C904FF4B9
:1024D000803002251D900121CDE922504FF43010AB
:1024E0001022CDE924011CA81F912092FFF76EF95C
:1024F00020B1EFF3108072B6FEE700BF0F20CDE9E8
:1025000017054FF48060CDE91A0417A80221199429
:10251000FFF798F820B1EFF3108072B6FEE700BF26
:1025200020200190002601A80896FEF72DFF28B173
:10253000EFF3108072B600BFFEE700BF41F2140057
:102540000596CDE90366CDE90166C4F20200016893
:1025500040F2004441F480010160016841F200084A
:1025600001F480011C911C990168002241F40031A2
:1025700001600168C4F6000401F400311C911C994B
:102580000168C4F2000841F4802101600068012163
:1025900000F480201C901C984FF090400127FEF71B
:1025A00081FC204601210022FEF77CFC1120CDE9B0
:1025B0000207032001AD04904FF090402946019797
:1025C000FEF790FB20462946CDE90177CDE9036669
:1025D000FEF788FB40F2D00008F58841C2F2000007
:1025E00041F62B52C0F2200280E8C600C0E9046622
:1025F000C0E906660662FEF7ABFC28B1EFF3108077
:1026000072B600BFFEE700BF40F2D000C2F2000089
:102610000021FEF753FC28B1EFF3108072B600BF23
:10262000FEE700BF40F2D000C2F20000002100250A
:10263000FEF76AFC20B1EFF3108072B6FEE700BF30
:1026400040F20800C2F2000000684DF68361C4F257
:102650001B3140F2700BA0FB0101C2F2000B584687
:102660004FF0FF3240F8148F02EB91414FF6FF72AA
:102670000295C0E90115C2608561FFF7F9FA28B13A
:10268000EFF3108072B600BFFEE700BF0BF1140538
:10269000002701A9284601970397FFF787FA28B179
:1026A000EFF3108072B600BFFEE700BF2846FFF7C9
:1026B00029FBFFF703FE0FF61C00FFF7C9FE4FF4DE
:1026C000FA60FEF7FBFAFFF7DFFD9FEDAB8B9FEDA6
:1026D000AC9B9FEDADAB9FEDAEBB9FEDAFDA4FF086
:1026E000030A0126B3EE0ECA4FF080090EE000BFC8
:1026F000FFF7CAFD00200021FFF768FE0FF6080073
:10270000FFF7A6FE4FF4FA60FEF7D8FA4FF0030881
:10271000112002A981E841044FF0904001A90597DA
:102720000196FEF7DFFA4FF0904001210022FEF7FC
:10273000B9FB0220FEF7C2FA4FF0904001210122BE
:10274000FEF7B0FBDBF81400476200BF416A1D29A9
:1027500008D8416A1D2905D8416A1D2902D8416A55
:102760001E29F3D301AC4FF0904021460597CDE9E7
:102770000167CDE90367FEF7B5FA4FF090402146B7
:102780000597CDE90167CDE90367FEF7ABFA4FF096
:1027900090400121FEF780FBC8B10021DBF8140056
:1027A0000C464762416A31B9416A21B9416A11B99F
:1027B000416A0029F6D04FF090400121FEF76CFBF2
:1027C00018B1632C04F10101E8D3622C1FD84FF03B
:1027D00090400121FEF760FBE0B90021DBF8140016
:1027E0000C464762416A31B9416A21B9416A11B95F
:1027F000416A0029F6D04FF090400121FEF74CFBD2
:1028000018B9632C04F10101E8D3622C02D98BF8CA
:10281000007026E04FF090400121FEF73DFBA8B389
:10282000002100BFDBF814000C464762416A31B951
:10283000416A21B9416A11B9416A0029F6D04FF0C5
:1028400090400121FEF728FB18B1632C04F101012F
:10285000E8D3632C4FF0000038BF01208BF8000054
:1028600016D3FFF711FD00200021FFF7AFFD0FF297
:102870008C60FFF7EDFD4FF47A70FEF71FFAA8F1B8
:1028800001085FEA08607FF443AF31E78BF800602E
:102890000026002407E000BF632C65D2062E06F157
:1028A00001062C4661D84FF090400121FEF7F4FA62
:1028B000C8B90021DBF814000D464762416A31B9FE
:1028C000416A21B9416A11B9416A0029F6D04FF035
:1028D00090400121FEF7E0FA18B9632D05F10101DE
:1028E000E8D3622D40D8DBF814004762416A1D2905
:1028F00008D8416A1D2905D8416A1D2902D8416AB4
:102900001E29F3D34FF090400121FEF7C5FA29FAB2
:1029100006F141EA040581F0FF01002808BF04EA3E
:1029200001054FF090400121FEF7B6FA0028B5D01E
:10293000002100BFDBF814000C464762416A31B940
:10294000416A21B9416A11B9416A0029F6D04FF0B4
:1029500090400121FEF7A0FA00283FF49DAF632CC0
:1029600004F10101E6D397E700258BF8015000261A
:1029700000241AE000BF00BF000000000000244057
:102980000000000000002240000000000000144091
:1029900000000000000040400000A042632C65D20F
:1029A000062E06F101062C4661D84FF09040012119
:1029B000FEF772FAC8B90021DBF814000D46476231
:1029C000416A31B9416A21B9416A11B9416A0029A4
:1029D000F6D04FF090400121FEF75EFA18B9632D52
:1029E00005F10101E8D3622D40D8DBF814004762FD
:1029F000416A1D2908D8416A1D2905D8416A1D2947
:102A000002D8416A1E29F3D34FF090400121FEF70E
:102A100043FA29FA06F141EA040581F0FF01002892
:102A200008BF04EA01054FF090400121FEF734FA97
:102A30000028B5D0002100BFDBF814000C46476227
:102A4000416A31B9416A21B9416A11B9416A002923
:102A5000F6D04FF090400121FEF71EFA00283FF417
:102A60009DAF632C04F10101E6D397E700258BF8B5
:102A700002500026002406E0632C65D2062E06F1E3
:102A800001062C4661D84FF090400121FEF704FA70
:102A9000C8B90021DBF814000D464762416A31B91C
:102AA000416A21B9416A11B9416A0029F6D04FF053
:102AB00090400121FEF7F0F918B9632D05F10101ED
:102AC000E8D3622D40D8DBF814004762416A1D2923
:102AD00008D8416A1D2905D8416A1D2902D8416AD2
:102AE0001E29F3D34FF090400121FEF7D5F929FAC2
:102AF00006F141EA040581F0FF01002808BF04EA5D
:102B000001054FF090400121FEF7C6F90028B5D02D
:102B1000002100BFDBF814000C464762416A31B95E
:102B2000416A21B9416A11B9416A0029F6D04FF0D2
:102B300090400121FEF7B0F900283FF49DAF632CCF
:102B400004F10101E6D397E700258BF80350002636
:102B5000002406E0632C65D2062E06F101062C4601
:102B600061D84FF090400121FEF796F9C8B90021D5
:102B7000DBF814000D464762416A31B9416A21B958
:102B8000416A11B9416A0029F6D04FF09040012105
:102B9000FEF782F918B9632D05F10101E8D3622D22
:102BA00040D8DBF814004762416A1D2908D8416A01
:102BB0001D2905D8416A1D2902D8416A1E29F3D36F
:102BC0004FF090400121FEF767F929FA06F141EA3A
:102BD000040581F0FF01002808BF04EA01054FF059
:102BE00090400121FEF758F90028B5D0002100BF20
:102BF000DBF814000C464762416A31B9416A21B9D9
:102C0000416A11B9416A0029F6D04FF09040012184
:102C1000FEF742F900283FF49DAF632C04F1010157
:102C2000E6D397E700258BF804500026002408E03F
:102C3000632C69D20136B9F1060F2C464FF080099A
:102C400068D84FF090400121FEF726F9C8B900215D
:102C5000DBF814000D464762416A31B9416A21B977
:102C6000416A11B9416A0029F6D04FF09040012124
:102C7000FEF712F918B9632D05F10101E8D3622DB1
:102C800046D8DBF814008025476200BF416A1D2941
:102C900008D8416A1D2905D8416A1D2902D8416A10
:102CA0001E29F3D34FF090400121FEF7F5F85FFAAB
:102CB00086F925FA09F141EA0405002808BF24EA4B
:102CC00001054FF090400121FEF7E6F80028B1D051
:102CD000002100BFDBF814000C464762416A31B99D
:102CE000416A21B9416A11B9416A0029F6D04FF011
:102CF00090400121FEF7D0F800283FF499AF632CF3
:102D000004F10101E6D393E700254FF0800901E0CB
:102D1000002500BF9BF801109BF802209BF80300E0
:102D20009BF80430561806441E44ECB2F5B2A54296
:102D3000ABF8064024D0FFF7A7FA00200021FFF7E8
:102D400045FBBBF8062001AE304667A1CDE904770C
:102D5000CDE902770197FDF7B3FA3046FFF778FB2C
:102D60004FF47A70FDF7AAFFA8F101085FEA086046
:102D70004FF0010618BFA5427FF4CAACFFF7B8BCFC
:102D800043EA002042EA0128ABF80800ABF80A80C9
:102D900000F0F6FE59EC18AB52464B4600F094FD9D
:102DA00000F0B8FCCBF80C00404600F0E9FE5246BB
:102DB0004B464FF0030A4FF0800900F085FD00F00C
:102DC000A9FCCBF81000FFF75FFADBF80C400020FD
:102DD00000210597CDE90377CDE90177FFF7F6FAF2
:102DE000204601F0CDF80B4601AD44F271110246C8
:102DF0002846C0F60001FDF763FA2846FFF728FBD6
:102E0000DBF80C000597CDE90377CDE9017701F0F8
:102E1000B7F853EC192B00F0C7FE53EC1A2B00F057
:102E200053FD53EC1B2B00F0A7FC00F073FC044691
:102E300001200021FFF7CAFA204601F0A1F80B4655
:102E400044F2501102462846C0F60001FDF738FA58
:102E50002846FFF7FDFADBF8104002200021059715
:102E6000CDE90377CDE90177FFF7B0FA204601F00D
:102E700087F80B4644F2651102462846C0F6000169
:102E8000FDF71EFA2846FFF7E3FA9BED030A012639
:102E9000B4EE4C0AF1EE10FA07DC9BED040AB4EE36
:102EA0004D0AF1EE10FA7FF72DAC40F20044C4F663
:102EB0000004204601210122FDF7F4FF4FF4FA70CF
:102EC000FDF7FCFE204601210022FDF7EBFFFFF796
:102ED00019BC00BF494E495449414C4953494E47DA
:102EE0003E3E3E3E00000000436865636B73756DB7
:102EF000204572723A202564000000004E6F205376
:102F0000656E736F7200000053656E736F722046BA
:102F100061696C75726500005FEA400C08BF91F052
:102F2000000F4FEA8C234FEAC12243EA51514FEA86
:102F30001C5018BF00F5F0404FEA300018BF41F0B8
:102F400000415FEA6C5C00F02980BCF1FF3F08BFE4
:102F500040F080407047130C06BF12044FF0100C75
:102F60004FF0000C130E04BF12020CF1080C130FEB
:102F700004BF12010CF1040C930F04BF92000CF17A
:102F8000020CD30F04BF52000CF1010C11464FF09C
:102F90000002A0F11F00A0EB0C00704711F0004FE1
:102FA00008BF704731F000413FF4D5AF0B0C06BFAE
:102FB00009044FF0100C4FF0000C0B0E04BF090277
:102FC0000CF1080C0B0F04BF09010CF1040C8B0F62
:102FD00004BF89000CF1020CCB0F04BF49000CF1B7
:102FE000010CCCF1200322FA03F341EA030102FAB7
:102FF0000CF2A0EB0C0000F10100704723F07F47BA
:1030000020F07F4C80EA030000F00040ACEB0703A7
:1030100003F57C5303F1FF032DE9804909B44FEA1E
:10302000144324EA03484FEA154B25EA0B4E0FF2EE
:10303000042606EB13273E7803FB0667C7F5000757
:1030400007FB06F64FEAD64606F102064FEA54376A
:1030500007FB066CCCF1005C4FEA1C472CEA074CDE
:103060000CFB06F507FB06F404EB15464FEA961633
:1030700049085FEA320234BF00204FF000404FEAB7
:10308000D13706FB07FC4FEA1C4C0CFB0BF7D21B9D
:1030900003FB0CF761EB07010CFB0EF7B0EB0740ED
:1030A00072EB17420CFB08F734BFA2EB0742B2EBFE
:1030B000074261EB17414FEA0C444FEA910706FBC8
:1030C00007FC4FEA1C4C0CFB0BF7B0EBC74072EB54
:1030D000573203FB0CF734BFA2EBC742B2EBC74237
:1030E00061EB57310CFB0EF7B0EBC70072EB577278
:1030F0000CFB08F734BFA2EBC702B2EBC70261EBCF
:1031000057714FEA816141EA92114FEA826242EAC5
:1031100090124FEA806004EBCC04039F4FEAD13752
:1031200006FB07FC4FEA1C4C0CFB0BF7D21B03FB06
:103130000CF761EB07010CFB0EF7B0EB074072EBED
:1031400017420CFB08F734BFA2EB0742B2EB074271
:1031500061EB17414FEA8C5504EB9C244FEA910731
:1031600006FB07FC4FEA1C4C0CFB0BF7B0EBC7400F
:1031700072EB573203FB0CF734BFA2EBC742B2EB42
:10318000C74261EB57310CFB0EF7B0EBC70072EB97
:1031900057720CFB08F734BFA2EBC702B2EBC702B1
:1031A00061EB57714FEA816141EA92114FEA826205
:1031B00042EA90124FEA806015EB4C2544F100047E
:1031C0004FEAD13706FB07FC4FEA1C4C0CFB0BF710
:1031D000D21B03FB0CF761EB07010CFB0EF7B0EB06
:1031E000074072EB17420CFB08F734BFA2EB074213
:1031F000B2EB074261EB17414FEA813141EA92415C
:103200004FEA823242EA90424FEA80304FEA0C762F
:1032100015EB1C1544F1000448EA03434EEA0B4841
:103220004FF0000EB2EB080C71EB030724BF6246AF
:1032300039464EEB0E0E4FF0000B0018524149413B
:103240004BEB0B0BB2EB080C71EB03077BF1000BA4
:1032500024BF624639464EEB0E0E4FF0000B0018AD
:10326000524149414BEB0B0BB2EB080C71EB0307DE
:103270007BF1000B24BF624639464EEB0E0E51EA3D
:10328000020718BF46F0010616EB0E7655F1000254
:1032900054F1000103D5BDE88901BDE80088BDE80F
:1032A0008901BDE80048B619524141EB0101A3F183
:1032B0000103704780807F7E7D7C7B7A797877768A
:1032C00076757473727171706F6E6E6D6C6C6B6A03
:1032D0006A696868676666656464636362616160A1
:1032E000605F5F5E5E5D5D5C5C5B5B5A5A5959581E
:1032F0005857575656555555545453535252525188
:10330000515050504F4F4F4E4E4D4D4D4C4C4C4BDD
:103310004B4B4A4A4A494949484848474747474624
:103320004646454545444444444343434342424260
:10333000424141419C46002B30D477002BD04FEACC
:1033400037071CB503B44FF010004FF01001BAF16D
:10335000000F06D0BCF1000FDCBF40F0080040F0C9
:1033600008014FF000000FBCBDE810400BF1010B4D
:10337000BBF1010F08BF5FEA170722BF12F101027C
:1033800011F101014FF0004143F1000300F0004052
:1033900043EA00007047F9D35708D0E746EA0646EB
:1033A0004FEA164613F1400F1FDD13F1200FDFBF68
:1033B00016430A46002120335B42BED0C3F12007EA
:1033C00046EA06464FEA164602FA07F746EA0706B5
:1033D00022FA03F2C3F1200701FA07F742EA0702D3
:1033E00021FA03F14FF00003A7E746EA020646EA96
:1033F00006464FEA164646EA0106BCBF46EA0646BE
:10340000360C4FF000034FF000024FF0000194E73C
:103410002DE9804C70B49A46934691E8380007C86D
:1034200031EA400C48BF34EA430C03D5FFF7E6FD10
:10343000FFF780FFF0BCBDE8008C2DE9804C70B434
:103440009A46934691E8380007C810F0804F08BFAD
:1034500013F0804F03D100F005F8FFF76BFFF0BCCD
:10346000BDE8008C20F07F4723F07F4C80EA03000A
:1034700000F0004007EB0C03A3F57C53A3F1FE031F
:1034800092F0000F00F0B38095F0000F00F077800D
:103490002DE901494FEA114021EA00484FEA14465C
:1034A00024EA064700FB06FC08FB06F607FB08F8C3
:1034B00018EB06484CEB164C00FB07F718EB0748D7
:1034C0004CEB17404FEA124B22EA0B4E4FEA1546DF
:1034D00025EA06470BFB06FC0EFB06F607FB0EFE75
:1034E0001EEB064E4CEB164C0BFB07F71EEB074E84
:1034F0004CEB174B18EB0B0840F1000018EB0E0BD0
:1035000058EB000840F100008F1A4FF000014FF017
:1035100000063CBFC943661B14BFB5EB040C002179
:103520003CBFC943F61B4FEA174427EA04454FEA5C
:103530001C472CEA074C04FB076205FB07F70CFB52
:1035400005F616EB074642EB174204FB0CFC16EBA4
:103550000C4642EB1C421BEB060658EB02024141B3
:103560004EEA8E0E46EA9E0601D5BDE80189B619DF
:10357000524141EB0101A3F10103BDE801894FEA8A
:10358000144524EA05464FEA114721EA074C05FB9A
:1035900007F406FB07F70CFB06F111EB074144EBC0
:1035A000174405FB0CFC11EB0C4144EB1C444FEAA7
:1035B000124722EA074C05FB07F206FB07F70CFB54
:1035C00006F616EB074642EB174205FB0CFC16EB22
:1035D0000C4642EB1C456A1854F1000148BF704785
:1035E000B619524141EB0101A3F10103704795F077
:1035F000000F37D04FEA114221EA02464FEA144742
:1036000024EA074C02FB07F106FB07F70CFB06F464
:1036100014EB074441EB174102FB0CFC14EB0C4488
:1036200041EB1C414FEA154725EA074C02FB07F521
:1036300006FB07F70CFB06F616EB074645EB1745AE
:1036400002FB0CFC16EB0C4645EB1C42121951F127
:10365000000148BF7047B619524141EB0101A3F187
:10366000010370474FEA144524EA05464FEA114723
:1036700021EA074C05FB07F106FB07F70CFB06F2F6
:1036800012EB074241EB174105FB0CFC12EB0C421D
:1036900051EB1C414FF0000648BF7047921841EBB8
:1036A0000101A3F10103704703B4019841000098A0
:1036B00050EAC12018BF04204A0D18BF40F0010095
:1036C00040F2FF72B2EB515F08BF40F002000128E8
:1036D00008BF052002B0704730380A2801D2012007
:1036E000704700207047000010B500290AD0087804
:1036F000002807D005487844FDF796FA002801D045
:10370000002010BD0248784410BD0000AE0A000041
:10371000A60A000021F0004201F00043A2F160522D
:10372000B2F5801F28BFD2F17F6C0BD95FEA001C75
:1037300043EAC20242EB507018BF704728BF20F026
:1037400001007047B2F5801FBCBF184670474FEAB2
:10375000410C1CF5001F02D2084600F08FBC70B56A
:1037600000F0CCFA00000089FFF7F6BF4FF00040F0
:10377000A0F580007047000010B591EA030F48BF24
:1037800083F0004300F11683841A71EB030C05D219
:10379000121943EB0C03001B61EB0C014FEA1154AF
:1037A000A4EB135CDFF81CE11EEA430F18BF9EEA8E
:1037B000445F00F0748021EA045123EA0E0343F4CD
:1037C0008013DCF1200E32D322FA0CFE10EB0E0037
:1037D00023FA0CFE41EB0E01CCF1200E03FA0EFE93
:1037E00010EB0E00CCF1200E51F10001B1F5801F5D
:1037F00032D201EB045112FA0EF2BDE8104058BF6C
:103800007047401C38BF5FEA420218BF704700286B
:1038100014BF20F0010041F100014FEA410313F50C
:10382000001F38BF7047A1F1C04100F0B5BA012AAE
:1038300043EB0302ACF1200CDCF11F0E32BF4FF062
:10384000000E23FA0CF310EB030041EB0451B4EB30
:10385000115FD0D0A1EB045101F58011490801EBB3
:1038600004515FEA30000ED350F1000038BF12FA65
:103870000EFE08D1BDE81040C9E7401C38BF5FEA22
:103880004202CAD1C3E7BDE810404FEA410313F535
:10389000001F38BF7047A1F1C04100F07DBA9EEA19
:1038A000445F08D011EA5E0FBDE8104004BF01F08C
:1038B000004100207047BDE8104070B500F01EFACE
:1038C00064FBBE3E0000E0FF2DE9C04130B4DFF8EC
:1038D000A8C23CEA111418BF3CEA131400F0F080AF
:1038E0001CEA111481EA030544EAD57418BF1CEAE6
:1038F000131500F0CB80A4EB050404F17F7404F5EC
:1039000000344FF0004545EAC12145EAC32341EAAE
:10391000505143EA52534FEAC0204FEAC222994223
:1039200008BF904200F0A0804FEA13650FF24816DE
:10393000765D4FEA134506FB05F7C7F1807706FB76
:1039400007F74FEAD737A7FB03687642A7FB06CEF7
:10395000C8F5803838BFA8F1010807FB08E6A6FBC8
:10396000028C4FF0000EE6FB03CED8F100086FEAA0
:103970000C0C5CF1000C6FEA0E0E4EF1004EA6FB33
:103980000C584FF00007E6FB0E87A1FB08C6A0FB12
:1039900007CE16EB0E064FF0000545F10005E1FBE2
:1039A000076515F1E04E7EBFA4F580345FEA460658
:1039B0006D4116F1800745F100054FEA172747EAE8
:1039C00005674FEA15254FEA0666A6F1DE46B6F111
:1039D000805F20D9384605EBC47124F0010C01EB5F
:1039E0000C11BCF1FE6F02D8F0BCBDE8008124428E
:1039F0005CBF01F5801E9EEAC47F02D4F0BCBDE826
:103A00000081244200F13980A1F1C041F0BCBDE841
:103A1000004100F0C1B94FEAD02040EA41504FEADE
:103A2000D1214FEAD22242EA43524FEAD323A7FBE5
:103A3000028607FB036605FB02661EEA0E0F58BFEF
:103A4000A6EB0056B6EB00564FEA520E4EEAC37E86
:103A500018EB0E0E56EB530EBCD518EB02085E4168
:103A60007F1C55F10005B5E74FF480154FF00007B6
:103A70004FF000064FF00008ACE701F1C04101F043
:103A800000414FF00000F0BCBDE800810CEA1315C6
:103A900011EA0C1F00D00CE013EA0C1F00F0258087
:103AA0004FF0000081EA030101F00041F0BCBDE8E5
:103AB0000081F0BCBDE8004181EA030100F06CB96F
:103AC000F0BCBDE8004170B500F018F9097EFC3E7D
:103AD00000F007B84FF0000081EA030101F0004157
:103AE000704781EA030100F057B9F0BCBDE800411E
:103AF00022494FF000007047FFFDFBF9F7F5F4F2A3
:103B0000F0EEEDEBE9E8E6E4E3E1E0DEDDDBDAD878
:103B1000D7D5D4D3D1D0CFCDCCCBCAC8C7C6C5C4D6
:103B2000C2C1C0BFBEBDBCBBBAB9B8B7B6B5B4B3ED
:103B3000B2B1B0AFAEADACABAAA9A8A8A7A6A5A4D8
:103B4000A3A3A2A1A09F9F9E9D9C9C9B9A9999989C
:103B50009797969595949393929191908F8F8E8E3F
:103B60008D8C8C8B8B8A89898888878786858584CC
:103B700084838382828181800000FF070000F87FB8
:103B8000B0FA80F310FA03F10AD0C3F11D0303F574
:103B900080634FEA03524FEA415002EBD121704754
:103BA0004FF000007047000070B5DFF848C11CEA14
:103BB000111E1EBF1CEA13159EEA0C0F95EA0C0F8E
:103BC00000F06F8081EA03044EEAD47EAE4421EA1D
:103BD0004C1123EA4C1341F4801143F48013AEF1ED
:103BE0007F7EA1FB024CA0FB0365361955EB0C054B
:103BF000A1FB034C4CF10003A0FB021C16EB0C06CE
:103C0000654153F10003094218BF46F0010613F461
:103C1000007F0BD14FEA03314FEA053041EA1551DD
:103C200040EA165034036FF003020AE04FEAC32162
:103C30004FEAC52041EA555140EA5650F4026FF070
:103C4000020202EB2E4201EB025585EACE710AD048
:103C50005FEA440C18BF24F0004450F1000041F129
:103C6000000120EAD47040F2FE7C624500D270BDB3
:103C7000A84214BF4FF080444FF04044002E08BFCC
:103C80000024BEF1806FA8BFA1F1C041BDE8704023
:103C900080F2828001F1C04101F000414FF000004C
:103CA00070470CEA13159EEA0C0F18BF95EA0C0F2B
:103CB00006D081EA030E4FF000000EF0004170BD07
:103CC00000F01CF88900013E00F007B800F009B8C8
:103CD0004FEA430C5FEA5C5C08D081EA030100F024
:103CE0005BB84FEA410C5FEA5C5CF6D102494FF0E9
:103CF000000070470000FF070000F87F0EF1020E81
:103D00002EF0030E5EF8046B364205D4012A43EB15
:103D1000030515F5001F12D8012841EB010C1CF515
:103D2000001F0CD80ED14FEAD17C0CEB4C0C0CF1DF
:103D3000020C15F5001F08BF4CEBD37C04E04FF0DC
:103D4000080C01E04FEAD37C0CEB4C0526FA05F693
:103D500006F00706B6F1040C06D20EEB860CBDE8A1
:103D600070404CF0010C6047DFE80CF0090B0202D8
:103D70004FF00041A1F500214FF0000070BD194641
:103D80001046012851EB010418BFD4F5001484BF7C
:103D9000002001F0004170BD0808A0F500114FEAB5
:103DA0003101704710B591EA030F48BF83F000431B
:103DB0003FF5EAAC841A71EB030C07D28CF0004C8F
:103DC000121943EB0C03001B61EB0C014FEA115479
:103DD000A4EB135CDFF8A4E11EEA430F18BF9EEAD0
:103DE000445F00F0B48021EA045123EA6E0352429A
:103DF000C3EB6E0338BF5B1EDCF1200E25D322FA25
:103E00000CFE10EB0E0043FA0CFE41EB0E01CCF160
:103E1000200E03FA0EFE10EB0E00CCF1200E51F135
:103E2000000129D401EB045112FA0EF2BDE8104052
:103E300058BF7047401C1CBFB2F1004F70470028AC
:103E40000CBF491C20F00100704712EB020E43EB3F
:103E5000030218BF4FF0010E4EEA4202ACF1200CF3
:103E6000DCF11E0E56D943FA0CFE10EB0E00CCF11D
:103E70001E0E51F1FF31D5D50EF1010E12FA0EFED4
:103E8000404141EB010101EB445C5FEA5C5C10D90D
:103E900001EB045110EBDE7038BFBEF1004FBDE8FE
:103EA000104018BF704700280CBF491C20F00100CB
:103EB000704734D24FEAD42C24F4006411F5001179
:103EC0001BD0B1FA81F20B3AA41AA41ED2F120033E
:103ED000914030FA03F31943904001EBCC7101EBB0
:103EE0000451002CBDE81040A8BF704701F1C0414B
:103EF00001F000414FF000007047B0FA80F310FA73
:103F000003F102D1BDE810407047E41A173C4805A0
:103F1000C90AE2E701EB0451BDE8104070474910BF
:103F20004FEA300001EB0451BDE8104002E04FF0D1
:103F3000000170474A0008BF0042F8D0B2F5001FE8
:103F400028BF704701F000414FF0000070479EEA23
:103F5000445F07D011EA5E0FBDE8104004BF0021A6
:103F600000207047BDE8104070B5FFF7C7FE00BFE6
:103F700040DFF63E104683F0004170470000E0FF4E
:103F800043004FEAD30C4FEA3C0C43401FBF4007AD
:103F90000CF1605113F0FE4F70471CF0006F03D11D
:103FA0000CF00041002070470CF0004343EA5070D1
:103FB00040EACC0010B500F00EF800BF00000092FF
:103FC0004FEA0001FFF7E8BE4FF00041A1F50021E4
:103FD0004FF0000070470EF1020E2EF0030E5EF857
:103FE000044B244204D44FEA4102B2F17F4F11D86E
:103FF0004FEA4003B3F17F4F0CD80ED14FEAD07C8B
:104000000CEB4C0C0CF1020CB2F17F4F08BF4CEBE7
:10401000D17C04E04FF0080C01E04FEAD17C0CEBBE
:104020004C0324FA03F404F00704B4F1040C06D2A0
:104030000EEB840CBDE810404CF0010C6047DFE84B
:104040000CF0070802024FF00040A0F5800010BD00
:104050000846420018BFD2F1807288BF00F00040CD
:1040600010BDF1EE100A4FF6FF71C0F2C03120EA28
:10407000010040F04070E1EE100A7047FF2141EA74
:10408000D050C0057047FCF74DBB00000240000057
:10409000000000A00000000005400000000000C873
:1040A000000000000C4000000000409C00000000E8
:1040B000194000000020BCBE000000003440000099
:1040C000BFC91B8E00000004B5400000504BCFD08C
:1040D0006607E2CF010000006C4100003E8251AA59
:1040E000DFEEA73401000000D9420000DCB5A0E2F9
:1040F0003A301F97FFFFFFFFB4450000FD25A0C821
:10410000E9A3C14FFFFFFFFFFF3F00000000008059
:1041100000000000FF3F00000000008000000000E1
:104120000000000000000000010203040607080967
:1041300002030405060708090A0B0C0D0E0F1010E8
:104140000102030405060708090A0B0C0D0E0F10E7
:1041500054656D7020696E2046203D20252E316605
:10416000204620200052483A20252E316620252561
:104170000054656D7020696E2043203D20252E314E
:1041800066204300C041000800000020100000002D
:10419000F8010008D04100081000002018070000B6
:1041A000180200081C00000043000000F8FFFFFF99
:1041B0000C0000000E0000000F0000002E000000A8
:1041C000010000001000000000127A000000000052
:040000050800019559
:00000001FF
